{
  "_format": "hh-sol-artifact-1",
  "contractName": "HashStorage",
  "sourceName": "contracts/HashStorage.sol",
  "abi": [
    {
      "anonymous": false,
      "inputs": [
        {
          "indexed": true,
          "internalType": "bytes32",
          "name": "hash",
          "type": "bytes32"
        },
        {
          "indexed": true,
          "internalType": "string",
          "name": "transactionNumber",
          "type": "string"
        },
        {
          "indexed": true,
          "internalType": "address",
          "name": "sender",
          "type": "address"
        },
        {
          "indexed": false,
          "internalType": "uint256",
          "name": "timestamp",
          "type": "uint256"
        }
      ],
      "name": "HashStored",
      "type": "event"
    },
    {
      "inputs": [
        {
          "internalType": "string",
          "name": "transactionNumber",
          "type": "string"
        }
      ],
      "name": "checkIfExists",
      "outputs": [
        {
          "internalType": "bool",
          "name": "",
          "type": "bool"
        }
      ],
      "stateMutability": "view",
      "type": "function"
    },
    {
      "inputs": [
        {
          "internalType": "string",
          "name": "_transactionNumber",
          "type": "string"
        }
      ],
      "name": "getCompleteHash",
      "outputs": [
        {
          "components": [
            {
              "internalType": "bytes32",
              "name": "hash",
              "type": "bytes32"
            },
            {
              "internalType": "string",
              "name": "transactionNumber",
              "type": "string"
            },
            {
              "internalType": "address",
              "name": "sender",
              "type": "address"
            },
            {
              "internalType": "uint256",
              "name": "timestamp",
              "type": "uint256"
            },
            {
              "internalType": "bool",
              "name": "exists",
              "type": "bool"
            }
          ],
          "internalType": "struct HashStorage.HashInfo",
          "name": "",
          "type": "tuple"
        }
      ],
      "stateMutability": "view",
      "type": "function"
    },
    {
      "inputs": [
        {
          "internalType": "string",
          "name": "_transactionNumber",
          "type": "string"
        }
      ],
      "name": "getHash",
      "outputs": [
        {
          "internalType": "bytes32",
          "name": "",
          "type": "bytes32"
        }
      ],
      "stateMutability": "view",
      "type": "function"
    },
    {
      "inputs": [
        {
          "internalType": "string",
          "name": "",
          "type": "string"
        }
      ],
      "name": "senderHashes",
      "outputs": [
        {
          "internalType": "bytes32",
          "name": "hash",
          "type": "bytes32"
        },
        {
          "internalType": "string",
          "name": "transactionNumber",
          "type": "string"
        },
        {
          "internalType": "address",
          "name": "sender",
          "type": "address"
        },
        {
          "internalType": "uint256",
          "name": "timestamp",
          "type": "uint256"
        },
        {
          "internalType": "bool",
          "name": "exists",
          "type": "bool"
        }
      ],
      "stateMutability": "view",
      "type": "function"
    },
    {
      "inputs": [
        {
          "internalType": "bytes32",
          "name": "_hash",
          "type": "bytes32"
        },
        {
          "internalType": "string",
          "name": "_transactionNumber",
          "type": "string"
        }
      ],
      "name": "setHash",
      "outputs": [],
      "stateMutability": "nonpayable",
      "type": "function"
    }
  ],
  "bytecode": "0x6080604052348015600f57600080fd5b50610eb58061001f6000396000f3fe608060405234801561001057600080fd5b50600436106100575760003560e01c806327a2f0451461005c5780635b6beeb914610090578063985b2e0b146100c0578063ab0a59a8146100dc578063e0484fae1461010c575b600080fd5b6100766004803603810190610071919061073b565b61013c565b604051610087959493929190610891565b60405180910390f35b6100aa60048036038101906100a5919061073b565b61023d565b6040516100b791906108eb565b60405180910390f35b6100da60048036038101906100d59190610932565b610267565b005b6100f660048036038101906100f1919061073b565b610411565b604051610103919061098e565b60405180910390f35b6101266004803603810190610121919061073b565b610448565b6040516101339190610aa5565b60405180910390f35b60008180516020810182018051848252602083016020850120818352809550505050505060009150905080600001549080600101805461017b90610af6565b80601f01602080910402602001604051908101604052809291908181526020018280546101a790610af6565b80156101f45780601f106101c9576101008083540402835291602001916101f4565b820191906000526020600020905b8154815290600101906020018083116101d757829003601f168201915b5050505050908060020160009054906101000a900473ffffffffffffffffffffffffffffffffffffffff16908060030154908060040160009054906101000a900460ff16905085565b6000808260405161024e9190610b63565b9081526020016040518091039020600001549050919050565b61027081610411565b156102b0576040517f08c379a00000000000000000000000000000000000000000000000000000000081526004016102a790610bc6565b60405180910390fd5b60004290506040518060a001604052808481526020018381526020013373ffffffffffffffffffffffffffffffffffffffff168152602001828152602001600115158152506000836040516103059190610b63565b90815260200160405180910390206000820151816000015560208201518160010190816103329190610d92565b5060408201518160020160006101000a81548173ffffffffffffffffffffffffffffffffffffffff021916908373ffffffffffffffffffffffffffffffffffffffff1602179055506060820151816003015560808201518160040160006101000a81548160ff0219169083151502179055509050503373ffffffffffffffffffffffffffffffffffffffff16826040516103cc9190610b63565b6040518091039020847f4dfbd3bcbd384f695d2bbcb8c24afa738b64c67e0a9a618c09cbd5d6f1e96493846040516104049190610e64565b60405180910390a4505050565b600080826040516104229190610b63565b908152602001604051809103902060040160009054906101000a900460ff169050919050565b610450610597565b6000826040516104609190610b63565b90815260200160405180910390206040518060a00160405290816000820154815260200160018201805461049390610af6565b80601f01602080910402602001604051908101604052809291908181526020018280546104bf90610af6565b801561050c5780601f106104e15761010080835404028352916020019161050c565b820191906000526020600020905b8154815290600101906020018083116104ef57829003601f168201915b505050505081526020016002820160009054906101000a900473ffffffffffffffffffffffffffffffffffffffff1673ffffffffffffffffffffffffffffffffffffffff1673ffffffffffffffffffffffffffffffffffffffff168152602001600382015481526020016004820160009054906101000a900460ff1615151515815250509050919050565b6040518060a001604052806000801916815260200160608152602001600073ffffffffffffffffffffffffffffffffffffffff168152602001600081526020016000151581525090565b6000604051905090565b600080fd5b600080fd5b600080fd5b600080fd5b6000601f19601f8301169050919050565b7f4e487b7100000000000000000000000000000000000000000000000000000000600052604160045260246000fd5b610648826105ff565b810181811067ffffffffffffffff8211171561066757610666610610565b5b80604052505050565b600061067a6105e1565b9050610686828261063f565b919050565b600067ffffffffffffffff8211156106a6576106a5610610565b5b6106af826105ff565b9050602081019050919050565b82818337600083830152505050565b60006106de6106d98461068b565b610670565b9050828152602081018484840111156106fa576106f96105fa565b5b6107058482856106bc565b509392505050565b600082601f830112610722576107216105f5565b5b81356107328482602086016106cb565b91505092915050565b600060208284031215610751576107506105eb565b5b600082013567ffffffffffffffff81111561076f5761076e6105f0565b5b61077b8482850161070d565b91505092915050565b6000819050919050565b61079781610784565b82525050565b600081519050919050565b600082825260208201905092915050565b60005b838110156107d75780820151818401526020810190506107bc565b60008484015250505050565b60006107ee8261079d565b6107f881856107a8565b93506108088185602086016107b9565b610811816105ff565b840191505092915050565b600073ffffffffffffffffffffffffffffffffffffffff82169050919050565b60006108478261081c565b9050919050565b6108578161083c565b82525050565b6000819050919050565b6108708161085d565b82525050565b60008115159050919050565b61088b81610876565b82525050565b600060a0820190506108a6600083018861078e565b81810360208301526108b881876107e3565b90506108c7604083018661084e565b6108d46060830185610867565b6108e16080830184610882565b9695505050505050565b6000602082019050610900600083018461078e565b92915050565b61090f81610784565b811461091a57600080fd5b50565b60008135905061092c81610906565b92915050565b60008060408385031215610949576109486105eb565b5b60006109578582860161091d565b925050602083013567ffffffffffffffff811115610978576109776105f0565b5b6109848582860161070d565b9150509250929050565b60006020820190506109a36000830184610882565b92915050565b6109b281610784565b82525050565b600082825260208201905092915050565b60006109d48261079d565b6109de81856109b8565b93506109ee8185602086016107b9565b6109f7816105ff565b840191505092915050565b610a0b8161083c565b82525050565b610a1a8161085d565b82525050565b610a2981610876565b82525050565b600060a083016000830151610a4760008601826109a9565b5060208301518482036020860152610a5f82826109c9565b9150506040830151610a746040860182610a02565b506060830151610a876060860182610a11565b506080830151610a9a6080860182610a20565b508091505092915050565b60006020820190508181036000830152610abf8184610a2f565b905092915050565b7f4e487b7100000000000000000000000000000000000000000000000000000000600052602260045260246000fd5b60006002820490506001821680610b0e57607f821691505b602082108103610b2157610b20610ac7565b5b50919050565b600081905092915050565b6000610b3d8261079d565b610b478185610b27565b9350610b578185602086016107b9565b80840191505092915050565b6000610b6f8284610b32565b915081905092915050565b7f45736120736f6c696369747564207961207469656e6520756e20486173680000600082015250565b6000610bb0601e836107a8565b9150610bbb82610b7a565b602082019050919050565b60006020820190508181036000830152610bdf81610ba3565b9050919050565b60008190508160005260206000209050919050565b60006020601f8301049050919050565b600082821b905092915050565b600060088302610c487fffffffffffffffffffffffffffffffffffffffffffffffffffffffffffffffff82610c0b565b610c528683610c0b565b95508019841693508086168417925050509392505050565b6000819050919050565b6000610c8f610c8a610c858461085d565b610c6a565b61085d565b9050919050565b6000819050919050565b610ca983610c74565b610cbd610cb582610c96565b848454610c18565b825550505050565b600090565b610cd2610cc5565b610cdd818484610ca0565b505050565b5b81811015610d0157610cf6600082610cca565b600181019050610ce3565b5050565b601f821115610d4657610d1781610be6565b610d2084610bfb565b81016020851015610d2f578190505b610d43610d3b85610bfb565b830182610ce2565b50505b505050565b600082821c905092915050565b6000610d6960001984600802610d4b565b1980831691505092915050565b6000610d828383610d58565b9150826002028217905092915050565b610d9b8261079d565b67ffffffffffffffff811115610db457610db3610610565b5b610dbe8254610af6565b610dc9828285610d05565b600060209050601f831160018114610dfc5760008415610dea578287015190505b610df48582610d76565b865550610e5c565b601f198416610e0a86610be6565b60005b82811015610e3257848901518255600182019150602085019450602081019050610e0d565b86831015610e4f5784890151610e4b601f891682610d58565b8355505b6001600288020188555050505b505050505050565b6000602082019050610e796000830184610867565b9291505056fea2646970667358221220687a39c1c36ef8d5568632a46613b2f7a4ec2b9228f71571f5ee07156f7951a264736f6c634300081c0033",
  "linkReferences": {},
  "deployedLinkReferences": {}
}